{
  "_format": "hh-sol-artifact-1",
  "contractName": "SupplyChainPayment",
  "sourceName": "contracts/Payment3.sol",
  "abi": [
    {
      "inputs": [
        {
          "internalType": "address",
          "name": "_arbitrator",
          "type": "address"
        }
      ],
      "stateMutability": "nonpayable",
      "type": "constructor"
    },
    {
      "anonymous": false,
      "inputs": [
        {
          "indexed": false,
          "internalType": "bytes32",
          "name": "orderId",
          "type": "bytes32"
        },
        {
          "indexed": false,
          "internalType": "address",
          "name": "raisedBy",
          "type": "address"
        }
      ],
      "name": "DisputeRaised",
      "type": "event"
    },
    {
      "anonymous": false,
      "inputs": [
        {
          "indexed": false,
          "internalType": "bytes32",
          "name": "orderId",
          "type": "bytes32"
        },
        {
          "indexed": false,
          "internalType": "bool",
          "name": "buyerWins",
          "type": "bool"
        }
      ],
      "name": "DisputeResolved",
      "type": "event"
    },
    {
      "anonymous": false,
      "inputs": [
        {
          "indexed": true,
          "internalType": "bytes32",
          "name": "orderId",
          "type": "bytes32"
        },
        {
          "indexed": true,
          "internalType": "address",
          "name": "buyer",
          "type": "address"
        },
        {
          "indexed": true,
          "internalType": "address",
          "name": "seller",
          "type": "address"
        },
        {
          "indexed": false,
          "internalType": "uint256",
          "name": "amount",
          "type": "uint256"
        },
        {
          "indexed": false,
          "internalType": "uint256",
          "name": "quantity",
          "type": "uint256"
        },
        {
          "indexed": false,
          "internalType": "string",
          "name": "itemName",
          "type": "string"
        }
      ],
      "name": "OrderCreated",
      "type": "event"
    },
    {
      "anonymous": false,
      "inputs": [
        {
          "indexed": false,
          "internalType": "bytes32",
          "name": "orderId",
          "type": "bytes32"
        },
        {
          "indexed": false,
          "internalType": "uint256",
          "name": "amount",
          "type": "uint256"
        }
      ],
      "name": "PaymentReleased",
      "type": "event"
    },
    {
      "inputs": [],
      "name": "ARBITRATION_FEE",
      "outputs": [
        {
          "internalType": "uint256",
          "name": "",
          "type": "uint256"
        }
      ],
      "stateMutability": "view",
      "type": "function"
    },
    {
      "inputs": [],
      "name": "arbitrator",
      "outputs": [
        {
          "internalType": "address",
          "name": "",
          "type": "address"
        }
      ],
      "stateMutability": "view",
      "type": "function"
    },
    {
      "inputs": [
        {
          "internalType": "string",
          "name": "orderId",
          "type": "string"
        }
      ],
      "name": "confirmDelivery",
      "outputs": [],
      "stateMutability": "nonpayable",
      "type": "function"
    },
    {
      "inputs": [
        {
          "internalType": "string",
          "name": "orderId",
          "type": "string"
        },
        {
          "internalType": "address",
          "name": "seller",
          "type": "address"
        },
        {
          "internalType": "uint256",
          "name": "quantity",
          "type": "uint256"
        },
        {
          "internalType": "string",
          "name": "itemName",
          "type": "string"
        }
      ],
      "name": "createOrder",
      "outputs": [],
      "stateMutability": "payable",
      "type": "function"
    },
    {
      "inputs": [
        {
          "internalType": "string",
          "name": "orderId",
          "type": "string"
        }
      ],
      "name": "getOrderById",
      "outputs": [
        {
          "internalType": "address",
          "name": "buyer",
          "type": "address"
        },
        {
          "internalType": "address",
          "name": "seller",
          "type": "address"
        },
        {
          "internalType": "uint256",
          "name": "amount",
          "type": "uint256"
        },
        {
          "internalType": "uint256",
          "name": "quantity",
          "type": "uint256"
        },
        {
          "internalType": "string",
          "name": "itemName",
          "type": "string"
        },
        {
          "internalType": "uint256",
          "name": "creationTime",
          "type": "uint256"
        },
        {
          "internalType": "uint256",
          "name": "completionTime",
          "type": "uint256"
        },
        {
          "internalType": "enum SupplyChainPayment.OrderStatus",
          "name": "status",
          "type": "uint8"
        },
        {
          "internalType": "bool",
          "name": "disputeRaised",
          "type": "bool"
        }
      ],
      "stateMutability": "view",
      "type": "function"
    },
    {
      "inputs": [
        {
          "internalType": "string",
          "name": "orderId",
          "type": "string"
        }
      ],
      "name": "getOrderStatus",
      "outputs": [
        {
          "internalType": "enum SupplyChainPayment.OrderStatus",
          "name": "status",
          "type": "uint8"
        }
      ],
      "stateMutability": "view",
      "type": "function"
    },
    {
      "inputs": [
        {
          "internalType": "string",
          "name": "orderId",
          "type": "string"
        }
      ],
      "name": "raiseDispute",
      "outputs": [],
      "stateMutability": "nonpayable",
      "type": "function"
    },
    {
      "inputs": [
        {
          "internalType": "string",
          "name": "orderId",
          "type": "string"
        }
      ],
      "name": "releasePaymentByBuyer",
      "outputs": [],
      "stateMutability": "nonpayable",
      "type": "function"
    },
    {
      "inputs": [
        {
          "internalType": "string",
          "name": "orderId",
          "type": "string"
        },
        {
          "internalType": "bool",
          "name": "buyerWins",
          "type": "bool"
        }
      ],
      "name": "resolveDispute",
      "outputs": [],
      "stateMutability": "nonpayable",
      "type": "function"
    }
  ],
  "bytecode": "0x608060405234801561001057600080fd5b50604051612c45380380612c458339818101604052810190610032919061014a565b3373ffffffffffffffffffffffffffffffffffffffff168173ffffffffffffffffffffffffffffffffffffffff16036100a0576040517f08c379a0000000000000000000000000000000000000000000000000000000008152600401610097906101fa565b60405180910390fd5b80600160006101000a81548173ffffffffffffffffffffffffffffffffffffffff021916908373ffffffffffffffffffffffffffffffffffffffff1602179055505061021a565b600080fd5b600073ffffffffffffffffffffffffffffffffffffffff82169050919050565b6000610117826100ec565b9050919050565b6101278161010c565b811461013257600080fd5b50565b6000815190506101448161011e565b92915050565b6000602082840312156101605761015f6100e7565b5b600061016e84828501610135565b91505092915050565b600082825260208201905092915050565b7f41726269747261746f722063616e6e6f7420626520746865206465706c6f796560008201527f7200000000000000000000000000000000000000000000000000000000000000602082015250565b60006101e4602183610177565b91506101ef82610188565b604082019050919050565b60006020820190508181036000830152610213816101d7565b9050919050565b612a1c806102296000396000f3fe6080604052600436106100865760003560e01c8063725a3b4b11610059578063725a3b4b14610126578063a45064601461014f578063aedfb5d314610178578063c5df16a0146101b5578063ce422626146101fa57610086565b8063049869c91461008b578063072bf24e146100b65780634d9db7f7146100d25780636cc6cde1146100fb575b600080fd5b34801561009757600080fd5b506100a0610223565b6040516100ad919061166d565b60405180910390f35b6100d060048036038101906100cb919061186c565b61022e565b005b3480156100de57600080fd5b506100f960048036038101906100f4919061190b565b61079e565b005b34801561010757600080fd5b5061011061092b565b60405161011d9190611963565b60405180910390f35b34801561013257600080fd5b5061014d6004803603810190610148919061190b565b610951565b005b34801561015b57600080fd5b506101766004803603810190610171919061190b565b610ba0565b005b34801561018457600080fd5b5061019f600480360381019061019a919061190b565b610cff565b6040516101ac91906119f5565b60405180910390f35b3480156101c157600080fd5b506101dc60048036038101906101d7919061190b565b610d33565b6040516101f199989796959493929190611aaa565b60405180910390f35b34801561020657600080fd5b50610221600480360381019061021c9190611b6a565b610f2a565b005b66038d7ea4c6800081565b60008211610271576040517f08c379a000000000000000000000000000000000000000000000000000000000815260040161026890611c12565b60405180910390fd5b60008151116102b5576040517f08c379a00000000000000000000000000000000000000000000000000000000081526004016102ac90611c7e565b60405180910390fd5b66038d7ea4c6800034116102fe576040517f08c379a00000000000000000000000000000000000000000000000000000000081526004016102f590611d10565b60405180910390fd5b600073ffffffffffffffffffffffffffffffffffffffff16600160009054906101000a900473ffffffffffffffffffffffffffffffffffffffff1673ffffffffffffffffffffffffffffffffffffffff160361038f576040517f08c379a000000000000000000000000000000000000000000000000000000000815260040161038690611da2565b60405180910390fd5b8273ffffffffffffffffffffffffffffffffffffffff16600160009054906101000a900473ffffffffffffffffffffffffffffffffffffffff1673ffffffffffffffffffffffffffffffffffffffff160361041f576040517f08c379a000000000000000000000000000000000000000000000000000000000815260040161041690611e34565b60405180910390fd5b3373ffffffffffffffffffffffffffffffffffffffff16600160009054906101000a900473ffffffffffffffffffffffffffffffffffffffff1673ffffffffffffffffffffffffffffffffffffffff16036104af576040517f08c379a00000000000000000000000000000000000000000000000000000000081526004016104a690611ec6565b60405180910390fd5b60006104ba85611372565b9050600073ffffffffffffffffffffffffffffffffffffffff1660008083815260200190815260200160002060000160009054906101000a900473ffffffffffffffffffffffffffffffffffffffff1673ffffffffffffffffffffffffffffffffffffffff1614610560576040517f08c379a000000000000000000000000000000000000000000000000000000000815260040161055790611f32565b60405180910390fd5b600066038d7ea4c68000346105759190611f81565b90506040518061012001604052803373ffffffffffffffffffffffffffffffffffffffff1681526020018673ffffffffffffffffffffffffffffffffffffffff168152602001828152602001858152602001848152602001428152602001600060038111156105e7576105e661197e565b5b8152602001600015158152602001600081525060008084815260200190815260200160002060008201518160000160006101000a81548173ffffffffffffffffffffffffffffffffffffffff021916908373ffffffffffffffffffffffffffffffffffffffff16021790555060208201518160010160006101000a81548173ffffffffffffffffffffffffffffffffffffffff021916908373ffffffffffffffffffffffffffffffffffffffff160217905550604082015181600201556060820151816003015560808201518160040190816106c391906121c1565b5060a0820151816005015560c08201518160060160006101000a81548160ff021916908360038111156106f9576106f861197e565b5b021790555060e08201518160060160016101000a81548160ff02191690831515021790555061010082015181600701559050508473ffffffffffffffffffffffffffffffffffffffff163373ffffffffffffffffffffffffffffffffffffffff16837ff2b2765edf82fc07e26cea1350aecc843b2e6bbc95c7b52076d65c97c430115584888860405161078e93929190612293565b60405180910390a4505050505050565b60006107a982611372565b9050600080600083815260200190815260200160002090508060000160009054906101000a900473ffffffffffffffffffffffffffffffffffffffff1673ffffffffffffffffffffffffffffffffffffffff163373ffffffffffffffffffffffffffffffffffffffff1614610853576040517f08c379a000000000000000000000000000000000000000000000000000000000815260040161084a9061231d565b60405180910390fd5b600160038111156108675761086661197e565b5b8160060160009054906101000a900460ff16600381111561088b5761088a61197e565b5b146108cb576040517f08c379a00000000000000000000000000000000000000000000000000000000081526004016108c290612389565b60405180910390fd5b8060060160019054906101000a900460ff161561091d576040517f08c379a0000000000000000000000000000000000000000000000000000000008152600401610914906123f5565b60405180910390fd5b610926826113a2565b505050565b600160009054906101000a900473ffffffffffffffffffffffffffffffffffffffff1681565b600061095c82611372565b9050600080600083815260200190815260200160002090508060000160009054906101000a900473ffffffffffffffffffffffffffffffffffffffff1673ffffffffffffffffffffffffffffffffffffffff163373ffffffffffffffffffffffffffffffffffffffff161480610a2157508060010160009054906101000a900473ffffffffffffffffffffffffffffffffffffffff1673ffffffffffffffffffffffffffffffffffffffff163373ffffffffffffffffffffffffffffffffffffffff16145b610a60576040517f08c379a0000000000000000000000000000000000000000000000000000000008152600401610a5790612461565b60405180910390fd5b60006003811115610a7457610a7361197e565b5b8160060160009054906101000a900460ff166003811115610a9857610a9761197e565b5b1480610ad9575060016003811115610ab357610ab261197e565b5b8160060160009054906101000a900460ff166003811115610ad757610ad661197e565b5b145b610b18576040517f08c379a0000000000000000000000000000000000000000000000000000000008152600401610b0f906124cd565b60405180910390fd5b60038160060160006101000a81548160ff02191690836003811115610b4057610b3f61197e565b5b021790555060018160060160016101000a81548160ff0219169083151502179055507fa71ec46ab116e07f9703467558af33f82718419b32e2acafa86c65587891e3cc8233604051610b93929190612506565b60405180910390a1505050565b6000610bab82611372565b9050600080600083815260200190815260200160002090508060000160009054906101000a900473ffffffffffffffffffffffffffffffffffffffff1673ffffffffffffffffffffffffffffffffffffffff163373ffffffffffffffffffffffffffffffffffffffff1614610c55576040517f08c379a0000000000000000000000000000000000000000000000000000000008152600401610c4c9061257b565b60405180910390fd5b60006003811115610c6957610c6861197e565b5b8160060160009054906101000a900460ff166003811115610c8d57610c8c61197e565b5b14610ccd576040517f08c379a0000000000000000000000000000000000000000000000000000000008152600401610cc4906125e7565b60405180910390fd5b60018160060160006101000a81548160ff02191690836003811115610cf557610cf461197e565b5b0217905550505050565b6000806000610d0d84611372565b815260200190815260200160002060060160009054906101000a900460ff169050919050565b60008060008060606000806000806000610d4c8b611372565b905060008060008381526020019081526020016000209050600073ffffffffffffffffffffffffffffffffffffffff168160000160009054906101000a900473ffffffffffffffffffffffffffffffffffffffff1673ffffffffffffffffffffffffffffffffffffffff1603610df7576040517f08c379a0000000000000000000000000000000000000000000000000000000008152600401610dee90612653565b60405180910390fd5b8060000160009054906101000a900473ffffffffffffffffffffffffffffffffffffffff168160010160009054906101000a900473ffffffffffffffffffffffffffffffffffffffff168260020154836003015484600401856005015486600701548760060160009054906101000a900460ff168860060160019054906101000a900460ff16848054610e8990611fe4565b80601f0160208091040260200160405190810160405280929190818152602001828054610eb590611fe4565b8015610f025780601f10610ed757610100808354040283529160200191610f02565b820191906000526020600020905b815481529060010190602001808311610ee557829003601f168201915b505050505094509a509a509a509a509a509a509a509a509a5050509193959799909294969850565b600160009054906101000a900473ffffffffffffffffffffffffffffffffffffffff1673ffffffffffffffffffffffffffffffffffffffff163373ffffffffffffffffffffffffffffffffffffffff1614610fba576040517f08c379a0000000000000000000000000000000000000000000000000000000008152600401610fb1906126bf565b60405180910390fd5b6000610fc583611372565b905060008060008381526020019081526020016000209050600380811115610ff057610fef61197e565b5b8160060160009054906101000a900460ff1660038111156110145761101361197e565b5b14611054576040517f08c379a000000000000000000000000000000000000000000000000000000000815260040161104b9061272b565b60405180910390fd5b82156111345760008160000160009054906101000a900473ffffffffffffffffffffffffffffffffffffffff1673ffffffffffffffffffffffffffffffffffffffff1682600201546040516110a89061277c565b60006040518083038185875af1925050503d80600081146110e5576040519150601f19603f3d011682016040523d82523d6000602084013e6110ea565b606091505b505090508061112e576040517f08c379a0000000000000000000000000000000000000000000000000000000008152600401611125906127dd565b60405180910390fd5b5061120a565b60008160010160009054906101000a900473ffffffffffffffffffffffffffffffffffffffff1673ffffffffffffffffffffffffffffffffffffffff1682600201546040516111829061277c565b60006040518083038185875af1925050503d80600081146111bf576040519150601f19603f3d011682016040523d82523d6000602084013e6111c4565b606091505b5050905080611208576040517f08c379a00000000000000000000000000000000000000000000000000000000081526004016111ff90612849565b60405180910390fd5b505b6000600160009054906101000a900473ffffffffffffffffffffffffffffffffffffffff1673ffffffffffffffffffffffffffffffffffffffff1666038d7ea4c680006040516112599061277c565b60006040518083038185875af1925050503d8060008114611296576040519150601f19603f3d011682016040523d82523d6000602084013e61129b565b606091505b50509050806112df576040517f08c379a00000000000000000000000000000000000000000000000000000000081526004016112d6906128b5565b60405180910390fd5b60008260060160016101000a81548160ff02191690831515021790555060028260060160006101000a81548160ff021916908360038111156113245761132361197e565b5b02179055504282600701819055507f6309d9f2499864a4f9d4ddb22f2b493afde8c215a1cd2e178647596cffe2efa483856040516113639291906128d5565b60405180910390a15050505050565b600081604051602001611385919061293a565b604051602081830303815290604052805190602001209050919050565b60008060008381526020019081526020016000209050600160038111156113cc576113cb61197e565b5b8160060160009054906101000a900460ff1660038111156113f0576113ef61197e565b5b14611430576040517f08c379a00000000000000000000000000000000000000000000000000000000081526004016114279061299d565b60405180910390fd5b60028160060160006101000a81548160ff021916908360038111156114585761145761197e565b5b021790555042816007018190555060008160010160009054906101000a900473ffffffffffffffffffffffffffffffffffffffff1673ffffffffffffffffffffffffffffffffffffffff1682600201546040516114b49061277c565b60006040518083038185875af1925050503d80600081146114f1576040519150601f19603f3d011682016040523d82523d6000602084013e6114f6565b606091505b505090508061153a576040517f08c379a000000000000000000000000000000000000000000000000000000000815260040161153190612849565b60405180910390fd5b60008260000160009054906101000a900473ffffffffffffffffffffffffffffffffffffffff1673ffffffffffffffffffffffffffffffffffffffff1666038d7ea4c6800060405161158b9061277c565b60006040518083038185875af1925050503d80600081146115c8576040519150601f19603f3d011682016040523d82523d6000602084013e6115cd565b606091505b5050905080611611576040517f08c379a0000000000000000000000000000000000000000000000000000000008152600401611608906127dd565b60405180910390fd5b7ffb1aac0c743329cf39fd58b93b627577ed70f90a94cd91610f1917a02f4e1afd8484600201546040516116469291906129bd565b60405180910390a150505050565b6000819050919050565b61166781611654565b82525050565b6000602082019050611682600083018461165e565b92915050565b6000604051905090565b600080fd5b600080fd5b600080fd5b600080fd5b6000601f19601f8301169050919050565b7f4e487b7100000000000000000000000000000000000000000000000000000000600052604160045260246000fd5b6116ef826116a6565b810181811067ffffffffffffffff8211171561170e5761170d6116b7565b5b80604052505050565b6000611721611688565b905061172d82826116e6565b919050565b600067ffffffffffffffff82111561174d5761174c6116b7565b5b611756826116a6565b9050602081019050919050565b82818337600083830152505050565b600061178561178084611732565b611717565b9050828152602081018484840111156117a1576117a06116a1565b5b6117ac848285611763565b509392505050565b600082601f8301126117c9576117c861169c565b5b81356117d9848260208601611772565b91505092915050565b600073ffffffffffffffffffffffffffffffffffffffff82169050919050565b600061180d826117e2565b9050919050565b61181d81611802565b811461182857600080fd5b50565b60008135905061183a81611814565b92915050565b61184981611654565b811461185457600080fd5b50565b60008135905061186681611840565b92915050565b6000806000806080858703121561188657611885611692565b5b600085013567ffffffffffffffff8111156118a4576118a3611697565b5b6118b0878288016117b4565b94505060206118c18782880161182b565b93505060406118d287828801611857565b925050606085013567ffffffffffffffff8111156118f3576118f2611697565b5b6118ff878288016117b4565b91505092959194509250565b60006020828403121561192157611920611692565b5b600082013567ffffffffffffffff81111561193f5761193e611697565b5b61194b848285016117b4565b91505092915050565b61195d81611802565b82525050565b60006020820190506119786000830184611954565b92915050565b7f4e487b7100000000000000000000000000000000000000000000000000000000600052602160045260246000fd5b600481106119be576119bd61197e565b5b50565b60008190506119cf826119ad565b919050565b60006119df826119c1565b9050919050565b6119ef816119d4565b82525050565b6000602082019050611a0a60008301846119e6565b92915050565b600081519050919050565b600082825260208201905092915050565b60005b83811015611a4a578082015181840152602081019050611a2f565b60008484015250505050565b6000611a6182611a10565b611a6b8185611a1b565b9350611a7b818560208601611a2c565b611a84816116a6565b840191505092915050565b60008115159050919050565b611aa481611a8f565b82525050565b600061012082019050611ac0600083018c611954565b611acd602083018b611954565b611ada604083018a61165e565b611ae7606083018961165e565b8181036080830152611af98188611a56565b9050611b0860a083018761165e565b611b1560c083018661165e565b611b2260e08301856119e6565b611b30610100830184611a9b565b9a9950505050505050505050565b611b4781611a8f565b8114611b5257600080fd5b50565b600081359050611b6481611b3e565b92915050565b60008060408385031215611b8157611b80611692565b5b600083013567ffffffffffffffff811115611b9f57611b9e611697565b5b611bab858286016117b4565b9250506020611bbc85828601611b55565b9150509250929050565b7f5175616e74697479206d7573742062652067726561746572207468616e203000600082015250565b6000611bfc601f83611a1b565b9150611c0782611bc6565b602082019050919050565b60006020820190508181036000830152611c2b81611bef565b9050919050565b7f4974656d206e616d652072657175697265640000000000000000000000000000600082015250565b6000611c68601283611a1b565b9150611c7382611c32565b602082019050919050565b60006020820190508181036000830152611c9781611c5b565b9050919050565b7f4d75737420636f766572206174206c65617374206172626974726174696f6e2060008201527f6665650000000000000000000000000000000000000000000000000000000000602082015250565b6000611cfa602383611a1b565b9150611d0582611c9e565b604082019050919050565b60006020820190508181036000830152611d2981611ced565b9050919050565b7f41726269747261746f7220616464726573732063616e6e6f74206265207a657260008201527f6f00000000000000000000000000000000000000000000000000000000000000602082015250565b6000611d8c602183611a1b565b9150611d9782611d30565b604082019050919050565b60006020820190508181036000830152611dbb81611d7f565b9050919050565b7f41726269747261746f7220616e642073656c6c65722063616e6e6f742062652060008201527f7468652073616d65000000000000000000000000000000000000000000000000602082015250565b6000611e1e602883611a1b565b9150611e2982611dc2565b604082019050919050565b60006020820190508181036000830152611e4d81611e11565b9050919050565b7f41726269747261746f7220616e642062757965722063616e6e6f74206265207460008201527f68652073616d6500000000000000000000000000000000000000000000000000602082015250565b6000611eb0602783611a1b565b9150611ebb82611e54565b604082019050919050565b60006020820190508181036000830152611edf81611ea3565b9050919050565b7f4f72646572204944206578697374730000000000000000000000000000000000600082015250565b6000611f1c600f83611a1b565b9150611f2782611ee6565b602082019050919050565b60006020820190508181036000830152611f4b81611f0f565b9050919050565b7f4e487b7100000000000000000000000000000000000000000000000000000000600052601160045260246000fd5b6000611f8c82611654565b9150611f9783611654565b9250828203905081811115611faf57611fae611f52565b5b92915050565b7f4e487b7100000000000000000000000000000000000000000000000000000000600052602260045260246000fd5b60006002820490506001821680611ffc57607f821691505b60208210810361200f5761200e611fb5565b5b50919050565b60008190508160005260206000209050919050565b60006020601f8301049050919050565b600082821b905092915050565b6000600883026120777fffffffffffffffffffffffffffffffffffffffffffffffffffffffffffffffff8261203a565b612081868361203a565b95508019841693508086168417925050509392505050565b6000819050919050565b60006120be6120b96120b484611654565b612099565b611654565b9050919050565b6000819050919050565b6120d8836120a3565b6120ec6120e4826120c5565b848454612047565b825550505050565b600090565b6121016120f4565b61210c8184846120cf565b505050565b5b81811015612130576121256000826120f9565b600181019050612112565b5050565b601f8211156121755761214681612015565b61214f8461202a565b8101602085101561215e578190505b61217261216a8561202a565b830182612111565b50505b505050565b600082821c905092915050565b60006121986000198460080261217a565b1980831691505092915050565b60006121b18383612187565b9150826002028217905092915050565b6121ca82611a10565b67ffffffffffffffff8111156121e3576121e26116b7565b5b6121ed8254611fe4565b6121f8828285612134565b600060209050601f83116001811461222b5760008415612219578287015190505b61222385826121a5565b86555061228b565b601f19841661223986612015565b60005b828110156122615784890151825560018201915060208501945060208101905061223c565b8683101561227e578489015161227a601f891682612187565b8355505b6001600288020188555050505b505050505050565b60006060820190506122a8600083018661165e565b6122b5602083018561165e565b81810360408301526122c78184611a56565b9050949350505050565b7f4f6e6c792062757965722063616e2072656c65617365207061796d656e740000600082015250565b6000612307601e83611a1b565b9150612312826122d1565b602082019050919050565b60006020820190508181036000830152612336816122fa565b9050919050565b7f4f72646572206e6f7420696e2052656365697665642073746174757300000000600082015250565b6000612373601c83611a1b565b915061237e8261233d565b602082019050919050565b600060208201905081810360008301526123a281612366565b9050919050565b7f4f7264657220756e646572206469737075746500000000000000000000000000600082015250565b60006123df601383611a1b565b91506123ea826123a9565b602082019050919050565b6000602082019050818103600083015261240e816123d2565b9050919050565b7f556e617574686f72697a6564207061727469636970616e740000000000000000600082015250565b600061244b601883611a1b565b915061245682612415565b602082019050919050565b6000602082019050818103600083015261247a8161243e565b9050919050565b7f496e76616c696420737461747573000000000000000000000000000000000000600082015250565b60006124b7600e83611a1b565b91506124c282612481565b602082019050919050565b600060208201905081810360008301526124e6816124aa565b9050919050565b6000819050919050565b612500816124ed565b82525050565b600060408201905061251b60008301856124f7565b6125286020830184611954565b9392505050565b7f4f6e6c792062757965722063616e20636f6e6669726d00000000000000000000600082015250565b6000612565601683611a1b565b91506125708261252f565b602082019050919050565b6000602082019050818103600083015261259481612558565b9050919050565b7f496e76616c6964206f7264657220737461747573000000000000000000000000600082015250565b60006125d1601483611a1b565b91506125dc8261259b565b602082019050919050565b60006020820190508181036000830152612600816125c4565b9050919050565b7f4f72646572206e6f7420666f756e640000000000000000000000000000000000600082015250565b600061263d600f83611a1b565b915061264882612607565b602082019050919050565b6000602082019050818103600083015261266c81612630565b9050919050565b7f556e617574686f72697a65642061726269747261746f72000000000000000000600082015250565b60006126a9601783611a1b565b91506126b482612673565b602082019050919050565b600060208201905081810360008301526126d88161269c565b9050919050565b7f4e6f206163746976652064697370757465000000000000000000000000000000600082015250565b6000612715601183611a1b565b9150612720826126df565b602082019050919050565b6000602082019050818103600083015261274481612708565b9050919050565b600081905092915050565b50565b600061276660008361274b565b915061277182612756565b600082019050919050565b600061278782612759565b9150819050919050565b7f5472616e7366657220746f206275796572206661696c65640000000000000000600082015250565b60006127c7601883611a1b565b91506127d282612791565b602082019050919050565b600060208201905081810360008301526127f6816127ba565b9050919050565b7f5472616e7366657220746f2073656c6c6572206661696c656400000000000000600082015250565b6000612833601983611a1b565b915061283e826127fd565b602082019050919050565b6000602082019050818103600083015261286281612826565b9050919050565b7f5472616e7366657220746f2061726269747261746f72206661696c6564000000600082015250565b600061289f601d83611a1b565b91506128aa82612869565b602082019050919050565b600060208201905081810360008301526128ce81612892565b9050919050565b60006040820190506128ea60008301856124f7565b6128f76020830184611a9b565b9392505050565b600081905092915050565b600061291482611a10565b61291e81856128fe565b935061292e818560208601611a2c565b80840191505092915050565b60006129468284612909565b915081905092915050565b7f5061796d656e74206e6f742072656c65617361626c6500000000000000000000600082015250565b6000612987601683611a1b565b915061299282612951565b602082019050919050565b600060208201905081810360008301526129b68161297a565b9050919050565b60006040820190506129d260008301856124f7565b6129df602083018461165e565b939250505056fea264697066735822122014a3d47aff21a774cd0fed43ff19d7fdc5375cf4e7f7148b0b96177323a7ac8d64736f6c634300081c0033",
  "linkReferences": {},
  "deployedLinkReferences": {}
}